:046800000C940038BC
:1068100084B7877F84BF88E10FB6F89480936000C7
:10682000109260000FBE90E080E80FB6F89480935D
:106830006100909361000FBEC1E0C5BF82E085BFDB
:10684000D8D6C0936F0083E08093810078948FEF57
:1068500081BB8AB18F728AB98BB1806D8BB93E983A
:10686000469A85B78F7E85BF19B186B1807490E056
:1068700095958795107D182B559AC0E0D0E021C0E2
:1068800081E091E00E949C3D0E94253D29B186B1A6
:10689000807490E095958795207D282BC03187E204
:1068A000D80728F42196C03187E2D80749F4211788
:1068B00058F55D9AC0E0D0E003C0109200015D98E9
:1068C000122F809100018111DBCF80918002982FDF
:1068D0009F5F909380028F3F99F68091E0008160E6
:1068E0008093E00082E49CED90938C0280938B0275
:1068F0002CE088E190E00FB6F894A89580936000B2
:106900000FBE20936000FFCF1217B8F2D9CF0895C1
:10691000089581E091E00C947F3D81E091E00C943A
:10692000403D6ED0109280020895913039F092303F
:1069300051F020E030E080E090E009C022E130E05A
:106940008CE092E004C020E230E08CEE91E0FA01AD
:1069500091838083C90108959F92AF92BF92CF9295
:10696000DF92EF92FF920F931F93CF93DF93EC018F
:10697000962EC8A0DF8CABA0BAA086E5C816D104BD
:10698000B8F080913C01807F856080933C0181E27A
:10699000809346011092470180E026C08C0D9D1D1A
:1069A000992011F05FD201C01DD20F5F1F4F02C0AE
:1069B00000E010E0C8010A151B0581F7A0E0B0E077
:1069C00029E0880F991FAA1FBB1F2A95D1F74C8970
:1069D0005D896E897F89481B590B6A0B7B0B4C8B39
:1069E0005D8B6E8B7F8B81E0DF91CF911F910F913B
:1069F000FF90EF90DF90CF90BF90AF909F90089561
:106A0000EF92FF920F931F93CF93DF93EC018B8D47
:106A10008F31A0F48D3108F0BEC08231F1F038F42E
:106A2000882309F4B8C0833009F0BAC047C08A315E
:106A300009F48FC08B3109F0B3C0A5C0883209F4C6
:106A400084C020F4853209F0ABC05DC08A3209F4FD
:106A50007AC08F3209F0A4C09EC00F8D1E8D8C8D20
:106A6000837019F48D8D882341F080913C01807FE3
:106A7000856080933C0184E29AC07801053211055B
:106A800018F034E2E32EF12C40E050E0B7018EE143
:106A900092E0DAD360E070E0C8018E199F0991D3CB
:106AA0008091E8008E778093E8008C899D89AE897B
:106AB000BF898E199F09A109B10920C00F8D102F20
:106AC000033108F012E140E050E0612F70E08AE30A
:106AD00091E0BAD3802F90E060E070E0811B9109D3
:106AE00070D38091E8008E778093E8008C899D892F
:106AF000AE89BF89811B9109A109B1098C8B9D8B3E
:106B0000AE8BBF8B5BC01092F1001092F10010921F
:106B1000F10085E58093F1001092F1001092F100F0
:106B200082E08093F1001092F1008091E8008E776E
:106B30008093E8004C895D896E897F8948505109AE
:106B4000610971091BC060E001C061E0CE0104DF92
:106B500033C01092F1001092F1001092F1001092E7
:106B6000F1008091E8008E778093E8004C895D8980
:106B70006E897F8944505109610971094C8B5D8B85
:106B80006E8B7F8B1BC08F8D837091E0823009F4F8
:106B900090E0909300011C8A1D8A1E8A1F8A0EC0F5
:106BA00080913C01807F856080933C0180E28093EE
:106BB0004601109247010DC0882359F080913C0195
:106BC000807F80933C01109246011092470181E042
:106BD00001C080E0DF91CF911F910F91FF90EF9066
:106BE0000895FB01F695E795E60FF0E0E80FF91F31
:106BF00060FF0EC080818F70942F9295907F892BBB
:106C0000808384E0569547958A95E1F741830895FE
:106C10004083CA01807F9927852B81830895BF9285
:106C2000CF92DF92EF92FF920F931F93CF93DF9358
:106C30006C01B42EEB0100E010E0E42EF12C81E0B9
:106C4000E81AF1080FC00E151F0521F0AE014F5FC5
:106C50005F4F02C04FEF5FE0BE01C601C2DF0F5FB2
:106C60001F4F21960B1578F3DF91CF911F910F9154
:106C7000FF90EF90DF90CF90BF900895AF92BF92BA
:106C8000CF92DF92EF92FF920F931F93CF93DF93F8
:106C90002091A6013091A7012150304C220F331FC3
:106CA000220F331F8217930708F44CC0F901F396A3
:106CB000E817F90708F446C06C01C21AD30ADC2CA5
:106CC000CC24DD0C442371F0DB0180E090E0FC017A
:106CD000EC0DFD1DE491ED930196811522E09207E4
:106CE000B1F730C086011E5F7B01EC18FD0801C0C2
:106CF0006501C6018F779927892B21F4B60180E0C1
:106D000090E00BD2F701EC0DFD1D8181D82F20E022
:106D1000C22F8081AE01482BB60180E090E021D2E5
:106D2000560182E0A80EB11CC5018F779927892BE7
:106D300031F4B6016E57710980E090E000D2A016E0
:106D4000B106B1F6DF91CF911F910F91FF90EF90B7
:106D5000DF90CF90BF90AF900895EF92FF920F9386
:106D60001F93CF93DF932091E6013091E7012150EB
:106D7000304C220F331F220F331F8217930758F115
:106D8000F9013196E817F90730F1EC01C21BD30B7A
:106D9000DC2FCC27DD0F8B01442389F0E12CF12C73
:106DA000C7018C0F9D1F0BD2F80181938F01FFEF5C
:106DB000EF1AFF0AE11482E0F80691F70CC07E0199
:106DC000EEEFFE1AF80161918F01CE012196F8D104
:106DD000CE15DF05B9F7DF91CF911F910F91FF908D
:106DE000EF9008950F931F93CF93DF93CDB7DEB746
:106DF000D2500FB6F894DEBF0FBECDBF8C0140E07D
:106E000050E060E072E0CE0101966BD28091E80024
:106E10008B778093E80003301105C8F0033011052B
:106E200051F480EAFE013196ACE4B1E001900D929C
:106E30008A95E1F70CC040E0BE016F5F7F4FC8014B
:106E40001DDF40E0BE016F5F7F4FC80186DFDE5F60
:106E50000FB6F894DEBF0FBECDBFDF91CF911F916B
:106E60000F910895EF92FF920F931F93CF93DF93AB
:106E7000CDB7DEB7D2500FB6F894DEBF0FBECDBF90
:106E80007C018E010F5F1F4F80E092E0F8019C01B2
:106E9000119221503040E1F733E0E316F10428F479
:106EA00081E0E816F104D8F405C0E3E0EE16F10441
:106EB000D1F530C08EE3E2E4F2E0D80101900D920A
:106EC0008A95E1F785E5C150DE4F8883CF5FD140D9
:106ED0008AEAC050DE4F8883C050D2402CC048EFB1
:106EE0005FE060E070E0C8017CDE4FEF5FE061E0F2
:106EF00070E0C80176DE6091A6017091A7014DE0B7
:106F0000C8018DDE6091E6017091E70141E0C801A2
:106F100086DE11C080EAECE4F1E0D80101900D9228
:106F20008A95E1F708C041E0B801C701A7DE41E05A
:106F3000B801C70112DF40E050E060E072E0CE012E
:106F4000019682D18091E8008E778093E800DE5F21
:106F50000FB6F894DEBF0FBECDBFDF91CF911F916A
:086F60000F91FF90EF900895DE
:1070000055C000007FC000007DC000007BC00000B4
:1070100079C0000077C0000075C0000073C0000098
:1070200071C000006FC0000001C30000B7C30000C2
:1070300069C0000067C0000065C0000063C00000B8
:1070400061C000005FC000005DC000005BC00000C8
:107050005AC0000057C0000055C0000053C00000D7
:1070600051C000004FC000004DC000004BC00000E8
:1070700049C0000047C0000045C0000043C00000F8
:1070800041C000003FC000003DC000003BC0000008
:1070900039C0000037C0000035C0000033C0000018
:1070A00031C000002FC000002DC0000011241FBE01
:1070B000CFEFDAE0DEBFCDBF04B603FE0EC0809195
:1070C0008B0290918C0282349C4D39F410928C0288
:1070D00010928B02E0E0F0E0099512E0A0E0B1E050
:1070E000E0EAFDE702C005900D92A038B107D9F79C
:1070F00022E0A0E8B2E001C01D92AB38B207E1F790
:1071000087DB4CC67DCF1F920F920FB60F921124D2
:107110000F900FBE0F901F90189507B600FCFDCF83
:10712000F999FECF23E0FB0120935700E89507B6BD
:1071300000FCFDCF81E180935700E895089507B6E4
:1071400000FCFDCFF999FECF25E0FB01209357000D
:10715000E89507B600FCFDCF81E180935700E895E4
:10716000089507B600FCFDCFF999FECF21E0FB01A1
:107170000A0120935700E8951124089521E2FC01AB
:10718000209357008491089529E0FC012093570033
:1071900084910895E1E0F0E089E0809357008491C4
:1071A000089507B600FCFDCFF999FECF809599E0D0
:1071B000E1E0F0E0082E90935700E8950895D4C5DB
:1071C000DBC5DF92EF92FF920F931F93CF93DF9374
:1071D0008C01EB01A2D1D82E81112DC0209721F076
:1071E00028813981021B130BE12CF12C1FC08091E7
:1071F000E80085FD14C08091E8008E778093E80058
:10720000209749F0888199818E0D9F1D99838883ED
:1072100095E0D92E10C081D1882341F00BC0109287
:10722000F100015011098FEFE81AF80A0115110554
:10723000F1F601C0D82E8D2DDF91CF911F910F91C6
:10724000FF90EF90DF900895BF92CF92DF92EF9280
:10725000FF920F931F93CF93DF937C018B01EA0181
:107260005CD1B82E811132C0209731F0288139814C
:10727000021B130BE20EF31EC12CD12C22C08091F5
:10728000E80085FD14C08091E8008E778093E800C7
:10729000209749F0888199818C0D9D1D9983888361
:1072A00025E0B22E13C039D1882359F00EC0F70162
:1072B00081917F018093F10001501109FFEFCF1AF6
:1072C000DF0A01151105D9F601C0B82E8B2DDF910B
:1072D000CF911F910F91FF90EF90DF90CF90BF90D3
:1072E0000895BF92CF92DF92EF92FF920F931F9378
:1072F000CF93DF937C018B01EA010FD1B82E81116E
:1073000032C0209731F028813981021B130BE20E25
:10731000F31EC12CD12C22C08091E80085FD14C041
:107320008091E8008B778093E800209749F088816E
:1073300099818C0D9D1D9983888345E0B42E13C0DF
:10734000ECD0882359F00EC08091F100F7018193B1
:107350007F0101501109FFEFCF1ADF0A0115110556
:10736000D9F601C0B82E8B2DDF91CF911F910F91CF
:10737000FF90EF90DF90CF90BF90089540918902E9
:1073800050918A024617570748F06115710539F484
:107390004091E8004E774093E80001C0BA01FC013B
:1073A00040E032C08EB3882309F441C0853009F42F
:1073B00040C08091E80083FD38C08091E80082FDE4
:1073C0002EC08091E80080FF1FC09091F300809153
:1073D000F200392F20E0A901482BCA0106C04191D3
:1073E0004093F1006150710901966115710519F022
:1073F00088309105A0F341E0089709F040E08091C2
:10740000E8008E778093E8006115710559F6411107
:10741000C9CF05C08EB3882351F0853051F08091DB
:10742000E80082FFF7CF80E0089581E0089582E0D0
:10743000089583E008958F708093E900EBEEF0E00B
:10744000808181608083EDEEF0E010826093EC003B
:1074500040838091EE00881F8827881F08950F932E
:107460001F93CF93DF93062FEC0110E02FC098817C
:10747000911103C01F5F259629C02C81E981FA81F3
:107480007B81892F8F70873010F080E022C02230FE
:1074900010F056E001C052E028E030E040E003C0C8
:1074A0004F5F220F331F2E173F07D0F34295407FC7
:1074B000452B692F661F6627661F90E4799F900110
:1074C0001124622BB8DF8111D5CFDFCF1013CFCFBE
:1074D00081E0DF91CF911F910F91089580918302F8
:1074E00087FD05C08091E80080FF0DC010C080912D
:1074F000E80082FD04C08EB38111F9CF0895809118
:10750000E8008B7707C08EB38111ECCF089580918E
:10751000E8008E778093E80008958091E4009091D0
:10752000E50045E62091EC0020FD1EC022C02EB3F0
:10753000222391F0253091F02091EB0025FD10C021
:107540002091E4003091E5002817390759F34150A4
:10755000C90141F784E0089582E0089583E0089529
:1075600081E0089580E008952091E80020FFDFCFBA
:10757000F9CF2091E80022FFDACFF4CF0F931F93C9
:10758000CF93DF9346D04DD0C8EDD0E088818F7780
:10759000888388818068888388818F7D888319BCEF
:1075A0001EBA1092810200EE10E0F80180818B7FFC
:1075B000808388818160888342E060E080E03BDFF7
:1075C000E1EEF0E080818E7F8083E2EEF0E080816A
:1075D00081608083808188608083F80180818E7FD4
:1075E0008083888180618883DF91CF911F910F9183
:1075F0000895E8EDF0E080818F7E8083E7EDF0E094
:1076000080818160808384E082BF81E080938202F8
:10761000B5CFE8EDF0E080818E7F80831092E200AC
:1076200008951092DA001092E10008951F920F92CF
:107630000FB60F9211242F933F934F935F936F9345
:107640007F938F939F93AF93BF93EF93FF9380911B
:10765000DA0080FF1BC08091D80080FF17C08091A6
:10766000DA008E7F8093DA008091D90080FF0BC012
:1076700080E189BD82E189BD09B400FEFDCF81E0D2
:107680008EBB45D903C019BC1EBA42D98091E10016
:1076900080FF17C08091E20080FF13C08091E2005C
:1076A0008E7F8093E2008091E20080618093E2000F
:1076B0008091D80080628093D80019BC85E08EBB91
:1076C000C3D18091E10084FF2EC08091E20084FF4D
:1076D0002AC080E189BD82E189BD09B400FEFDCFE9
:1076E0008091D8008F7D8093D8008091E1008F7EBB
:1076F0008093E1008091E2008F7E8093E200809190
:10770000E20081608093E20080918102882311F081
:1077100084E007C08091E30087FF02C083E001C0DE
:1077200081E08EBB91D18091E10083FF26C08091E2
:10773000E20083FF22C08091E100877F8093E10017
:1077400082E08EBB109281028091E1008E7F809357
:10775000E1008091E2008E7F8093E2008091E20060
:1077600080618093E20042E060E080E064DE80912E
:10777000F00088608093F00067D1FF91EF91BF9196
:10778000AF919F918F917F916F915F914F913F91B9
:107790002F910F900FBE0F901F9018951F920F9270
:1077A0000FB60F9211242F933F934F935F936F93D4
:1077B0007F938F939F93AF93BF93CF93EF93FF9359
:1077C0008091E9008F709091EC0090FF02C090E8EA
:1077D00001C090E0C92FC82B1092E9008091F00001
:1077E000877F8093F00078941CD01092E9008091FC
:1077F000F00088608093F000CF70C093E900FF91A3
:10780000EF91CF91BF91AF919F918F917F916F91A8
:107810005F914F913F912F910F900FBE0F901F904E
:1078200018951F93CF93DF9300D0CDB7DEB7E3E871
:10783000F2E08091F100819382E0EB38F807C9F71C
:107840006CD88091E80083FFEBC080918302909117
:107850008402953009F470C038F4913079F170F0F9
:10786000933009F0DDC02AC0983009F4ABC09930DC
:1078700009F4BAC0963009F0D3C083C0803899F0BB
:10788000823809F0CDC080918702909188028F7074
:1078900099278093E9009091EB0095FB992790F947
:1078A0001092E90001C090E08091E800877F80930A
:1078B000E8009093F1001092F1008FC0882319F036
:1078C000823009F0ADC08F71823009F0A9C080917B
:1078D000850281112BC080918702909188028F7060
:1078E0009927009709F49CC08093E9002091EB0050
:1078F00020FF1CC020918402233021F48091EB00F2
:10790000806212C09091EB0090619093EB0021E0B7
:1079100030E001C0220F8A95EAF72093EA00109226
:10792000EA008091EB0088608093EB001092E90000
:107930008091E800877F54C0811172C080918502D8
:10794000909186028F779927182F9091E300907875
:10795000982B9093E3008091E800877F8093E80064
:10796000BDDD8091E80080FFFCCF8091E30080685E
:107970008093E300112311F083E001C082E08EBB0D
:107980004FC08058823008F04BC0AE014F5F5F4F50
:107990006091870280918502909186020E949534C1
:1079A000009709F43DC02091E800277F2093E8006C
:1079B000BC0189819A81E2DC8091E8008B77809319
:1079C000E8002EC0803861F58091E800877F8093C1
:1079D000E800809181028093F1008091E8008E7729
:1079E0008093E8007BDD1CC081111AC09091850254
:1079F0009230B0F48091E800877F8093E800909304
:107A000081026CDD80918102811104C08091E300CC
:107A100087FF02C084E001C081E08EBB0E948934F0
:107A20008091E80083FF0AC08091E800877F8093FF
:107A3000E8008091EB0080628093EB000F900F9044
:107A4000DF91CF911F9108950895CF938EB388232E
:107A5000A9F08091E9008F709091EC0090FF02C036
:107A600090E801C090E0C92FC82B1092E9008091E6
:107A7000E80083FDD6DECF70C093E900CF91089572
:107A8000CF93DF93EC018091E80083FF35C08881BC
:107A900090E020918702309188022817390761F51C
:107AA000809184028E3F79F08F3F31F5809183027F
:107AB000813211F58091E800877F8093E8000EDD28
:107AC00081E088AF19C080918302813AA9F4809146
:107AD000E800877F8093E8008091E80080FFFCCF7A
:107AE0008B8581508093F1008091E8008E778093A0
:107AF000E800DF91CF91F2CCDF91CF910895CF9341
:107B0000DF93EC010C96FC018DE2DF011D928A955A
:107B1000E9F782E08C83898761E0CE0101969FDCE2
:107B2000882331F061E0CE010696DF91CF9197CCAA
:107B300080E0DF91CF910895EF92FF920F931F9312
:107B4000CF93DF9300D0CDB7DEB78C018EB38430F6
:107B500009F001C1F80186818F708093E90080915E
:107B6000E80082FFBEC086818F708093E9001A8290
:107B700019827801FCE0EF0EF11C03C080AD811189
:107B8000B0C0AE014F5F5F4F6FE070E0C701A9DB8F
:107B9000F801853099F384859585A685B785853567
:107BA0009345A244B34469F4F801918D83859817F5
:107BB00040F4808D8F7129F4828D882311F08131FA
:107BC00080F08091EB0080628093EB00F80181816E
:107BD0008F708093E9008091EB0080628093EB00CE
:107BE00080C01A8219827801FBE1EF0EF11C04C0FB
:107BF000F80180AD811175C0F801628DAE014F5F53
:107C00005F4F70E0C7016DDB853091F38091E80034
:107C10008B778093E800F801808D87FF04C0818115
:107C20008F708093E900C8010E94913491E09827F9
:107C3000F80197AB45E553E562E473E543A754A724
:107C400065A776A7408951896289738947A750AB98
:107C500061AB72AB448955896689778943AB54AB74
:107C600065AB76AB811109C0452B462B472B29F01C
:107C70008091EB0080628093EB00F80186818F7029
:107C80008093E90003C080AD81112BC08091EB008F
:107C9000F80185FDF8CF81818F708093E90004C0E1
:107CA000F80180AD81111DC08091EB0085FDF8CFFA
:107CB0001A8219827801FBE2EF0EF11C04C0F80170
:107CC00080AD81110EC0AE014F5F5F4F6DE070E07F
:107CD000C701BADA853099F38091E8008E778093F6
:107CE000E800F80180AD8823B1F126812F7081E092
:107CF00090E0AC0102C0440F551F2A95E2F7409373
:107D0000EA001092EA0021812F70022E01C0880F34
:107D10000A94EAF78093EA001092EA0086818F7055
:107D20008093E9008091EB0080618093EB0080916B
:107D3000EB0088608093EB0081818F708093E90075
:107D40008091EB0080618093EB008091EB00886074
:107D50008093EB0010AE0F900F90DF91CF911F91A9
:107D60000F91FF90EF900895F999FECF92BD81BDDC
:107D7000F89A992780B50895262FF999FECF92BDDC
:107D800081BDF89A019700B4021639F01FBA20BDE0
:107D90000FB6F894FA9AF99A0FBE0895F894FFCFA7
:107DA00001008340000001044000000101000000C8
:107DB00000000000000000000000000000000000C3
:107DC00000000000000000000000000000000000B3
:107DD0000000000000000000000070000000000033
:107DE000000A00000000000000000000434C4F4368
:107DF0004B434C4F434B20080000000000000000A4
:107E00000000000000000000000000004143004CA2
:107E1000004F0043004B000F002C5F003800320081
:107E20002E004200490000004E000000434C4F432A
:107E30004B5F383242494E00000000000000000055
:107E40000000200830120200006800004153004585
:107E5000005400540049000F00874E0047005300B3
:107E60002E0043004F0000004E00000053455454C4
:107E7000494E4753434F4E000000000000000000F1
:107E80000000200830060F00FF0300000902200058
:107E900001010080320904000002080650000705B5
:107EA000830240000507050402400005120110018D
:107EB00000000008EB0345200100000000010080E5
:107EC00000021F0000004C55464100000000426FB8
:107ED0006F746C6F61646572000000000000302EEA
:107EE0003030EB3C906D6B646F736673000002047E
:107EF00001000210005600F8010016000100000009
:107F000000000000000000002978563412434C4F56
:107F1000434B434C4F434B204641543132202020A9
:107FA000BCC8CDC8DEC8EAC8EFC8F4C8FAC808958E
:087FB000089508950895089555
:107FE000DFCFDFCFDFCFDFCFDFCFDFCFDFCFDFCF21
:087FF000DFCFDFCFDFCFDFCFD1
:087FF8000070000030DFFBDC2B
:040000030000700089
:00000001FF
